{
  "_format": "hh-sol-artifact-1",
  "contractName": "Prediction",
  "sourceName": "contracts/Prediction.sol",
  "abi": [
    {
      "inputs": [],
      "stateMutability": "nonpayable",
      "type": "constructor"
    },
    {
      "inputs": [],
      "name": "getA",
      "outputs": [
        {
          "internalType": "uint256",
          "name": "",
          "type": "uint256"
        }
      ],
      "stateMutability": "view",
      "type": "function"
    },
    {
      "inputs": [],
      "name": "getB",
      "outputs": [
        {
          "internalType": "uint256",
          "name": "",
          "type": "uint256"
        }
      ],
      "stateMutability": "view",
      "type": "function"
    },
    {
      "inputs": [
        {
          "internalType": "uint256",
          "name": "amount",
          "type": "uint256"
        }
      ],
      "name": "placeA",
      "outputs": [],
      "stateMutability": "nonpayable",
      "type": "function"
    },
    {
      "inputs": [
        {
          "internalType": "uint256",
          "name": "amount",
          "type": "uint256"
        }
      ],
      "name": "placeB",
      "outputs": [],
      "stateMutability": "nonpayable",
      "type": "function"
    },
    {
      "inputs": [],
      "name": "viewVolume",
      "outputs": [
        {
          "internalType": "uint256",
          "name": "",
          "type": "uint256"
        },
        {
          "internalType": "uint256",
          "name": "",
          "type": "uint256"
        }
      ],
      "stateMutability": "view",
      "type": "function"
    }
  ],
  "bytecode": "0x6080604052348015600f57600080fd5b506064600081905550606460018190555061029e8061002f6000396000f3fe608060405234801561001057600080fd5b50600436106100575760003560e01c80630470ebad1461005c57806319e6f4af14610078578063254171c814610097578063a1c51915146100b3578063d46300fd146100d1575b600080fd5b61007660048036038101906100719190610185565b6100ef565b005b61008061010b565b60405161008e9291906101c1565b60405180910390f35b6100b160048036038101906100ac9190610185565b61011c565b005b6100bb610137565b6040516100c891906101ea565b60405180910390f35b6100d9610141565b6040516100e691906101ea565b60405180910390f35b80600160008282546101019190610234565b9250508190555050565b600080600054600154915091509091565b8060008082825461012d9190610234565b9250508190555050565b6000600154905090565b60008054905090565b600080fd5b6000819050919050565b6101628161014f565b811461016d57600080fd5b50565b60008135905061017f81610159565b92915050565b60006020828403121561019b5761019a61014a565b5b60006101a984828501610170565b91505092915050565b6101bb8161014f565b82525050565b60006040820190506101d660008301856101b2565b6101e360208301846101b2565b9392505050565b60006020820190506101ff60008301846101b2565b92915050565b7f4e487b7100000000000000000000000000000000000000000000000000000000600052601160045260246000fd5b600061023f8261014f565b915061024a8361014f565b925082820190508082111561026257610261610205565b5b9291505056fea2646970667358221220e58d29f689f8715a0fd0761d0247e0df163ebe0a94492f45e83bdbc4b7628f6264736f6c634300081b0033",
  "linkReferences": {},
  "deployedLinkReferences": {}
}